:020000040800F2
:1000000000400120490400084103000843030008A0
:1000100045030008470300084903000800000000EA
:100020000000000000000000000000004B0300087A
:100030004D030008000000004F03000827020008DD
:10004000910400089104000891040008910400083C
:10005000910400089104000891040008910400082C
:10006000910400089104000891040008910400081C
:10007000910400089104000891040008910400080C
:1000800091040008910400089104000891040008FC
:1000900091040008910400089104000891040008EC
:1000A00091040008910400089104000891040008DC
:1000B00091040008910400089104000891040008CC
:1000C00091040008910400089104000891040008BC
:1000D00091040008910400089104000891040008AC
:1000E00051030008910400089104000891040008DD
:1000F0009104000800000000910400089104000829
:10010000910400089104000891040008910400087B
:100110009104000891040008910400080000000008
:100120009104000800000000000000000000000032
:0C01300000000000000000005FF808F173
:10013C0010B5054C237833B9044B13B10448AFF315
:10014C0000800123237010BD54000020000000002B
:10015C00100E000808B5034B1BB103490348AFF35D
:10016C00008008BD0000000058000020100E0008A0
:10017C00034B1B6813F0800FFAD0014B586070478B
:10018C000044004010B5044602E00134FFF7F0FFD4
:10019C0020780028F9D1012010BD0000034B1B680A
:1001AC0013F0200FFAD0014B586870470044004000
:1001BC0008B500F0DFF80B4B1B680B4AA2FB0323BE
:1001CC009B0C013BB3F1807F0AD24FF0E0225361CC
:1001DC00064BF02183F8231000239361072313614E
:1001EC0008BD00BF0000002083DE1B4300ED00E0D3
:1001FC00034B1860024B1B68002BFBD1704700BFF0
:10020C007000002010B504E04FF47A70FFF7F0FF97
:10021C002046441E0028F7D110BD7047044BDA6904
:10022C0042F00102DA615A6A42F400325A627047B3
:10023C00003802400C4B1A6842F020021A601A6A0D
:10024C0042F4E0621A621A6842F080021A601A6A7A
:10025C0042F4E0421A621A6842F480621A605A68E8
:10026C0022F020025A60704700000240094B1B68C4
:10027C00094AA2FB03231A0DC3F3034343EA0213F7
:10028C00064A9360D36843F4005343F00C03D360E5
:10029C00704700BF00000020C5B3A291004400408D
:1002AC0070B588B0FFF784FFFFF7B8FFFFF7C2FF08
:1002BC00FFF7DCFF20220021684600F005F9174B00
:1002CC001A681749684600F0DFF81648FFF75AFF1E
:1002DC001548FFF757FF1548FFF754FF6846FFF71F
:1002EC0051FF02E02046FFF743FFFFF757FF04469C
:1002FC000025AC42F6D90E4E736943F020037361AE
:10030C004FF47A70FFF77EFF736923F0200373615B
:10031C004FF47A70FFF776FF0135EAE70000002012
:10032C00280E0008300E0008400E0008500E000881
:10033C0000000240FEE7FEE7FEE7FEE7FEE770473F
:10034C007047704708B54FF4005000F003F808BD33
:10035C007047000008B5054B5B69034200D108BD2E
:10036C00024B5861FFF7F4FFF9E700BF00040140AE
:10037C00704700002B4B9B6803F00C030C2B44D8EC
:10038C00DFE803F0074343431D4343432143434307
:10039C002500244B5B68C3F3423301334FF4004216
:1003AC0002FA03F3204A13601E4B9B68C3F303133A
:1003BC001E4AD15C1C4A1368CB40136070471A4B21
:1003CC001B4A1A60F0E7184B1A4A1A60ECE71549F9
:1003DC008A688B68C2F383421748825CC3F38153EB
:1003EC000133896811F4803F07D1114901FB02F2F6
:1003FC00B2FBF3F20C4B1A60D6E70E4901FB02F28A
:10040C00B2FBF3F2084B1A60CEE7064B5B68C3F302
:10041C00423301334FF4004202FA03F3024A1360F1
:10042C00C2E700BF0038024000000020600E000848
:10043C000024F40000127A00700E0008FFF798FFF9
:10044C000B480C490C4A002302E0D458C450043326
:10045C00C4188C42F9D3094A094C002301E01360FB
:10046C000432A242FBD300F037F8FFF719FF7047B4
:10047C000000002054000020B40E0008540000209E
:10048C00C0010020FEE700000EB46FF0004100B583
:10049C009CB01DAB02900690079104910848094945
:1004AC0053F8042B0591006802A9019300F084F91C
:1004BC000022029B1A701CB05DF804EB03B070476D
:1004CC00040000200802FFFF03460244934200D1BF
:1004DC00704703F8011BF9E770B500260C4D0D4C65
:1004EC00641BA410A64209D100F08CFC00260A4D16
:1004FC000A4C641BA410A64205D170BD55F8043BF0
:10050C0098470136EEE755F8043B98470136F2E779
:10051C00AC0E0008AC0E0008AC0E0008B00E0008C3
:10052C007047704738B50546002940D051F8043C57
:10053C000C1F002BB8BFE41800F0D6F81C4A136847
:10054C0033B9636014602846BDE8384000F0D2B877
:10055C00A34208D9206821188B4201BF19685B6837
:10056C0009182160EDE71A465B680BB1A342FAD972
:10057C0011685018A0420BD12068014450188342D6
:10058C001160E0D118685B68084410605360DAE7CA
:10059C0002D90C232B60D6E7206821188B4201BFAF
:1005AC0019685B680918216063605460CBE738BD3B
:1005BC00B801002070B50F4E0C463168054611B9D4
:1005CC0000F0B0FB30602146284600F0ABFB431C2A
:1005DC0003D14FF0FF34204670BDC41C24F003043B
:1005EC00A042F8D0211A284600F09CFB0130F2D131
:1005FC00EFE700BFB40100202DE9F041CD1C25F040
:10060C00030508350C2D38BF0C25002D064601DBE3
:10061C00A94204D90C2333600020BDE8F081314F8E
:10062C0000F062F83B681C4644BB29463046FFF795
:10063C00C1FF431C044650D13C682146002941D1DE
:10064C00002C44D02368304604EB030800F06AFB0E
:10065C0080453CD1216830466D1A2946FFF7AAFF28
:10066C00013034D023682B4423603B68002B36D0F8
:10067C005A68A24229D100225A600EE02268521B0D
:10068C001DD40B2A16D96119A342256018BF5960D5
:10069C00636808BF396062514B60304600F02AF83D
:1006AC0004F10B00231D20F00700C21AB5D01B1A51
:1006BC00A350B2E7A3426268DED13A60EDE723466D
:1006CC006468B1E70C464968B8E71346CEE70C23DB
:1006DC003046336000F00EF89EE70560DDE75B60A6
:1006EC00FFDE00BFB80100200148FFF719BF00BFB3
:1006FC00B00100200148FFF714BF00BFB00100207B
:10070C002DE9F0471F468E688246BE420C46904645
:10071C000B682DD8B1F90C2012F4906F26D06569B6
:10072C00096905EB4505A3EB010905EBD5757B1CA8
:10073C004B446D109D4238BF1D46530527D52946A5
:10074C00FFF75AFF064660B34A46216900F008FBE2
:10075C00A38923F4906343F08003A38126614E4464
:10076C0026603E466561A5EB0905A560BE4200D931
:10077C003E4632464146206800F0BAFA0020A36893
:10078C009B1BA360236833442360BDE8F0872A4693
:10079C0000F0F4FA06460028E0D150462169FFF734
:1007AC00C1FE0C23CAF80030A3894FF0FF3043F090
:1007BC004003A381E9E700002DE9F04F98468B89AF
:1007CC0007461B060D4614469DB010D50B6973B930
:1007DC004021FFF711FF2860286130B90C233B60E2
:1007EC004FF0FF301DB0BDE8F08F40236B6100234C
:1007FC00099320238DF8293030234FF00109CDF8CF
:10080C000C80DFF898818DF82A3023469A4613F82D
:10081C00012B0AB1252AF9D1BAEB040B0BD05B469C
:10082C00224629463846FFF76BFF013000F0A780BF
:10083C00099A5A4409929AF80030002B00F09F80D4
:10084C0000234FF0FF32CDE905230AF1010A04938E
:10085C0007938DF853301A935446052214F8011B54
:10086C004E4800F06FFA049AD8B9D00644BF202342
:10087C008DF85330110744BF2B238DF853309AF861
:10088C0000302A2B15D0544600204FF00A0C079A42
:10089C00214611F8013B303B092B4BD9B0B10792E3
:1008AC0014E0A0EB080309FA03F31343A2460493E4
:1008BC00D2E7039B191D1B680391002BBBBF5B4246
:1008CC0042F0020207930793B8BF049223782E2BB1
:1008DC000AD163782A2B32D1039B02341A1D1B6870
:1008EC00039243EAE3730593DFF8B4A00322504666
:1008FC00217800F027FA38B14022049BA0EB0A00C3
:10090C00824013430134049314F8011B062225483A
:10091C008DF8281000F016FA002836D0224B1BBB9D
:10092C00039B073323F0070308330393099B3344DA
:10093C0009936AE70C4601200CFB0232A8E700235E
:10094C004FF00A0C194601340593204610F8012B80
:10095C00303A092A03D9002BC6D00591C4E70446C6
:10096C0001230CFB0121F0E703AB00932A46384628
:10097C000E4B04A9AFF30080421C0646D6D1AB89BE
:10098C005B063FF52DAF09982CE703AB00932A4685
:10099C003846064B04A900F07DF8EDE7790E000807
:1009AC007F0E0008830E0008000000000D070008F1
:1009BC002DE9F047164698468A680B69074693421C
:1009CC00B8BF1346336091F843200C46DDF82090F5
:1009DC000AB1013333602368990642BF336802338E
:1009EC003360256815F0060506D104F1190AE36891
:1009FC0032689B1AAB422BDC94F843302268003BE4
:100A0C0018BF0123920630D44146384604F1430204
:100A1C00C847013023D02368226903F00603042B56
:100A2C0014BF002533684FF0000608BFE56804F1D9
:100A3C001A0408BFED1A54F8123C08BF25EAE575F4
:100A4C009342C4BF9B1AED18B5421AD1002008E09E
:100A5C000123524641463846C847013003D14FF076
:100A6C00FF30BDE8F0870135C1E73020E11881F88F
:100A7C0043005A1C94F845102244023382F8431068
:100A8C00C2E70123224641463846C8470130E6D02A
:100A9C000136D9E72DE9FF470F7E9146782F804626
:100AAC000C469A460C9D01F1430207D8622F0AD8D6
:100ABC00002F00F0E080582F00F0BB8004F14206BC
:100ACC0084F842703AE0A7F16303152BF6D801A124
:100ADC0051F823F0390B00084D0B0008C90A000827
:100AEC00C90A0008C90A0008C90A00084D0B000809
:100AFC00C90A0008C90A0008C90A0008C90A00087E
:100B0C00690C0008DD0B00081F0C0008C90A00085E
:100B1C00C90A00088B0C0008C90A0008DD0B000884
:100B2C00C90A0008C90A0008270C00082B6804F140
:100B3C0042061A1D1B682A6084F842300123ABE080
:100B4C00236829681F0601F10400286001D50D688F
:100B5C0003E05E06FBD5B1F90050002D61687ADA2E
:100B6C002D20002984F84300A1602DDA0A235E4869
:100B7C006D421646B5FBF3F103FB1157C75D06F842
:100B8C00017D2F46BB420D46F4D9082B0BD12368AF
:100B9C00DF0708D5236961689942DEBF302306F868
:100BAC00013C06F1FF36921B22614B462146404622
:100BBC00CDF800A003AAFFF7FBFE013071D14FF076
:100BCC00FF3004B0BDE8F08723F004032360CDE7C9
:100BDC002B682068191D2960050601D51D6802E0E7
:100BEC004106FBD51D886F2F14BF0A2308233E48EE
:100BFC00002184F843106668002EA660B9DB2168DA
:100C0C0021F004012160002DB3D1002EB1D1164684
:100C1C00BBE7236843F0200323607827334884F82C
:100C2C004570296823680E1D2E601E0603D50D68BD
:100C3C0004E02D48F3E75D06F9D50D88D90744BFCC
:100C4C0043F0200323600DB11023D1E7236823F078
:100C5C0020032360F8E70A232348CCE72B68266897
:100C6C00181D6169286035061B6801D5196002E002
:100C7C007006FBD5198000231646236195E72B6877
:100C8C0000211A1D2A601E686268304600F05AF86E
:100C9C0008B1801B606063682361002384F84330D3
:100CAC0083E73246494640462369D047013086D017
:100CBC0023689B0714D4E068039B9842B8BF18467E
:100CCC007FE70123324649464046D04701303FF486
:100CDC0076AF0135E36803995B1AAB42F1DCEAE7C6
:100CEC00002504F11906F5E78A0E00089B0E000892
:100CFC00884210B501EB020402D98442234607D87E
:100D0C00431EA14208D011F8012B03F8012FF8E77C
:100D1C00014602448A4200D110BD13F8014D02F87D
:100D2C00014DF7E738B50023054D044608462B6006
:100D3C0000F05AF8431C02D12B6803B1236038BD74
:100D4C00AC010020034610B5C9B2024493421846C8
:100D5C0001D1002003E0047801338C42F6D110BDA0
:100D6C000A44914200F1FF3300D1704710B511F8DD
:100D7C00014B914203F8014FF9D110BD2DE9F0411F
:100D8C00804615460C4621B91146BDE8F041FFF7E7
:100D9C0033BC2AB9FFF7C6FB00242046BDE8F0811E
:100DAC0000F01AF88542064602D8B5EB500FF4D87D
:100DBC0029464046FFF720FC07460028ECD0B542F8
:100DCC002A46214628BF3246FFF7CAFF2146404635
:100DDC00FFF7A8FB3C46E0E751F8043C181F002B3A
:100DEC00BCBF0B58C0187047044A05491368002B48
:100DFC0008BF0B461844106018467047BC01002011
:100E0C00C0010020F8B500BFF8BC08BC9E46704776
:0C0E1C00F8B500BFF8BC08BC9E4670474B
:100E2800256C64200A0D000074686572652069737A
:100E3800206E6F0A0D000000656D6F74696F6E207B
:100E48006F6E6C790A0D00006675636B696E6720BA
:100E580070656163650A0D00000000000000000075
:100E68000102030406070809030406080C101820E9
:100E780030232D302B2000686C4C00656667454692
:100E880047003031323334353637383941424344FC
:100E9800454600303132333435363738396162638C
:040EA8006465660017
:040EAC0061010008D8
:040EB0003D010008F8
:100EB40068FF1F00080000200000000074000020EC
:100EC400DC000020440100200000000000000000BD
:100ED400000000000000000000000000000000000E
:100EE40000000000000000000000000000000000FE
:100EF40000000000000000000000000000000000EE
:040F040000000000E9
:0400000508000449A2
:00000001FF
