:020000040800F2
:1000000000400120D1050008CD030008CF030008FF
:10001000D1030008D3030008D50300080000000046
:10002000000000000000000000000000D7030008EE
:10003000D903000800000000DB030008DD0300080E
:100040001906000819060008190600081906000814
:100050001906000819060008190600081906000804
:1000600019060008190600081906000819060008F4
:1000700019060008190600081906000819060008E4
:1000800019060008190600081906000819060008D4
:1000900019060008190600081906000819060008C4
:1000A00019060008190600081906000819060008B4
:1000B00019060008190600081906000819060008A4
:1000C0001906000819060008190600081906000894
:1000D0001906000819060008190600081906000884
:1000E000E5030008190600081906000819060008AB
:1000F000190600080000000019060008190600088B
:100100001906000819060008190600081906000853
:10011000190600081906000819060008000000006A
:1001200019060008000000000000000000000000A8
:0C01300000000000000000005FF808F173
:10013C0053B94AB9002908BF00281CBF4FF0FF3142
:10014C004FF0FF3000F00CB8ADF1080C6DE904CEA7
:10015C0000F012FFDDF804E0DDE9022304B0704783
:10016C00704700BF0348044B834202D0034B03B1DA
:10017C00184770475800002058000020000000006D
:10018C000548064B1B1AD90F01EBA301491002D0ED
:10019C00034B03B11847704758000020580000204B
:1001AC000000000010B5064C237843B9FFF7DAFFC6
:1001BC00044B13B10448AFF300800123237010BD2E
:1001CC0058000020000000004412000808B5054B40
:1001DC001BB105490548AFF30080BDE80840FFF7A7
:1001EC00CFBF00BF000000005C00002044120008DC
:1001FC00034B1B6813F0800FFAD0014B586070470B
:10020C000044004010B5044602E00134FFF7F0FF53
:10021C0020780028F9D1012010BD0000034B1B6889
:10022C0013F0200FFAD0014B58687047004400407F
:10023C0008B5284A136843F480331360254B1B68B8
:10024C0013F4003FFAD0244B40F205721A60A3F568
:10025C0080639A6822F0F0029A609A6822F4E06255
:10026C009A609A6802F460529A609A6842F40802A2
:10027C009A609A6842F480329A60164B9B6813F429
:10028C00803FFAD0134A136843F080731360114B0C
:10029C001B6813F0007FFAD00E4A936843F00303F7
:1002AC0093600C4B9B6813F0060FFAD0094B1A683D
:1002BC0042F080521A601A6822F001021A60DA6960
:1002CC0042F00102DA615A6A42F400325A6200F0DA
:1002DC0015F908BD00380240003C02400C4B1A686E
:1002EC0042F020021A601A6A42F4E0621A621A683A
:1002FC0042F080021A601A6A42F4E0421A621A68EA
:10030C0042F480621A605A6822F020025A607047E8
:10031C0000000240044A45239360D36843F4005321
:10032C0043F00C03D36070470044004000B58BB021
:10033C00FFF77EFFFFF7D2FFFFF7ECFF00230293DE
:10034C00039304930593069307930893099300F082
:10035C0055F80346134A0092134A1268134902A82F
:10036C0000F07AF91248FFF74DFF1248FFF74AFFE9
:10037C001148FFF747FF02A8FFF744FF09E00F49B8
:10038C004B6923F020034B6101329042F7D8FFF701
:10039C002FFF0A4A536943F020035361FFF73EFFD6
:1003AC000022F2E70048E801040000205C1200087B
:1003BC006C1200087C1200088C120008000002402D
:1003CC00FEE7FEE7FEE7FEE7FEE770477047704783
:1003DC0008B500F007F808BD08B54FF4005000F060
:1003EC007DF808BD034A1368034909680B44136080
:1003FC00704700BF740000200000002008B5324B8D
:10040C009A6802F00C03082B5AD00C2B0AD0042B40
:10041C0058D02D4B5B68C3F3423301334FF400408B
:10042C00984008BDC2F383432849C85CC2F381528B
:10043C000132254B9B6813F4803F20D04FEA401CBF
:10044C00BCEB000C6EEB0E0E4FEA8E1343EA9C6372
:10045C004FEA8C11B1EB0C0163EB0E03DB0043EAAA
:10046C005173C90011EB000C43F100035902002336
:10047C004FEA4C2041EADC51FFF75AFED1E74FEA34
:10048C00401CBCEB000C6EEB0E0E4FEA8E1343EAD5
:10049C009C634FEA8C11B1EB0C0163EB0E03DB0098
:1004AC0043EA5173C90011EB000C43F100039902AC
:1004BC0000234FEA8C2041EA9C51FFF739FEB0E74C
:1004CC000348AEE70348ACE700380240AC12000822
:1004DC0000127A000024F4007047000008B5054BA8
:1004EC005B69034200D108BD024B5861FFF7F4FF72
:1004FC00F9E700BF00040140704700002B4B9B68DC
:10050C0003F00C030C2B44D8DFE803F00743434300
:10051C001D434343214343432500244B5B68C3F3F2
:10052C00423301334FF4004202FA03F3204A1360C2
:10053C001E4B9B68C3F303131E4AD15C1C4A136801
:10054C00CB40136070471A4B1B4A1A60F0E7184BEC
:10055C001A4A1A60ECE715498A688B68C2F3834221
:10056C001748825CC3F381530133896811F4803FCF
:10057C0007D1114901FB02F2B2FBF3F20C4B1A60EA
:10058C00D6E70E4901FB02F2B2FBF3F2084B1A60FC
:10059C00CEE7064B5B68C3F3423301334FF40042A2
:1005AC0002FA03F3024A1360C2E700BF00380240AC
:1005BC00040000209C1200080024F40000127A00B1
:1005CC00AC120008FFF798FF0B480C490C4A0023AB
:1005DC0002E0D458C4500433C4188C42F9D3094AED
:1005EC00094C002301E013600432A242FBD300F05B
:1005FC000FF8FFF79BFE704700000020580000200A
:10060C00F812000858000020C4010020FEE700008A
:10061C0070B500260C4D0D4C641BA410A64209D1DC
:10062C0000F00AFE00260A4D0A4C641BA410A642D8
:10063C0005D170BD55F8043B98470136EEE755F8E7
:10064C00043B98470136F2E7F0120008F01200085C
:10065C00F0120008F41200080EB46FF0004100B55F
:10066C009CB01DAB02900690079104910848094973
:10067C0053F8042B0591006802A9019300F06AF865
:10068C000022029B1A701CB05DF804EB03B070479B
:10069C00080000200802FFFF704770472DE9F04763
:1006AC001F468E688246BE420C4690460B682DD87B
:1006BC00B1F90C2012F4906F26D06569096905EB2D
:1006CC004505A3EB010905EBD5757B1C4B446D105F
:1006DC009D4238BF1D46530527D5294600F012FB15
:1006EC00064660B34A46216900F0DCFAA38923F47C
:1006FC00906343F08003A38126614E4426603E46FE
:10070C006561A5EB0905A560BE4200D93E4632469F
:10071C004146206800F08AFB0020A3689B1BA36065
:10072C00236833442360BDE8F0872A4600F098FB29
:10073C0006460028E0D15046216900F0BFFB0C238F
:10074C00CAF80030A3894FF0FF3043F04003A38177
:10075C00E9E700002DE9F04F98468B8907461B0608
:10076C000D4614469DB010D50B6973B9402100F0AD
:10077C00C9FA2860286130B90C233B604FF0FF3078
:10078C001DB0BDE8F08F40236B610023099320233B
:10079C008DF8293030234FF00109CDF80C80DFF8AB
:1007AC0098818DF82A3023469A4613F8012B0AB10A
:1007BC00252AF9D1BAEB040B0BD05B46224629460D
:1007CC003846FFF76BFF013000F0A780099A5A44B6
:1007DC0009929AF80030002B00F09F8000234FF014
:1007EC00FF32CDE905230AF1010A049307938DF832
:1007FC0053301A935446052214F8011B4E4800F04E
:10080C0043FA049AD8B9D00644BF20238DF853304C
:10081C00110744BF2B238DF853309AF800302A2B44
:10082C0015D0544600204FF00A0C079A214611F8B7
:10083C00013B303B092B4BD9B0B1079214E0A0EB34
:10084C00080309FA03F31343A2460493D2E7039B6C
:10085C00191D1B680391002BBBBF5B4242F00202C7
:10086C0007930793B8BF049223782E2B0AD1637891
:10087C002A2B32D1039B02341A1D1B68039243EAC4
:10088C00E3730593DFF8B4A003225046217800F0FF
:10089C00FBF938B14022049BA0EB0A0082401343C1
:1008AC000134049314F8011B062225488DF82810F6
:1008BC0000F0EAF9002836D0224B1BBB039B073310
:1008CC0023F0070308330393099B334409936AE726
:1008DC000C4601200CFB0232A8E700234FF00A0C57
:1008EC00194601340593204610F8012B303A092A99
:1008FC0003D9002BC6D00591C4E7044601230CFB99
:10090C000121F0E703AB00932A4638460E4B04A9AD
:10091C00AFF30080421C0646D6D1AB895B063FF58F
:10092C002DAF09982CE703AB00932A463846064BAB
:10093C0004A900F07DF8EDE7B5120008BB12000821
:10094C00BF12000800000000A90600082DE9F047BE
:10095C00164698468A680B6907469342B8BF1346F9
:10096C00336091F843200C46DDF820900AB1013336
:10097C0033602368990642BF3368023333602568BD
:10098C0015F0060506D104F1190AE36832689B1AC2
:10099C00AB422BDC94F843302268003B18BF012398
:1009AC00920630D44146384604F14302C847013020
:1009BC0023D02368226903F00603042B14BF0025FF
:1009CC0033684FF0000608BFE56804F11A0408BF4D
:1009DC00ED1A54F8123C08BF25EAE5759342C4BFE2
:1009EC009B1AED18B5421AD1002008E0012352469B
:1009FC0041463846C847013003D14FF0FF30BDE8BF
:100A0C00F0870135C1E73020E11881F843005A1C0A
:100A1C0094F845102244023382F84310C2E70123B4
:100A2C00224641463846C8470130E6D00136D9E760
:100A3C002DE9FF470F7E9146782F80460C469A464B
:100A4C000C9E01F1430207D8622F0AD8002F00F048
:100A5C00DD80582F00F0C38004F1420684F8427008
:100A6C003AE0A7F16303152BF6D801A151F823F056
:100A7C00D50A0008E90A0008650A0008650A00089A
:100A8C00650A0008650A0008E90A0008650A0008FA
:100A9C00650A0008650A0008650A0008FF0B0008D3
:100AAC00770B0008B70B0008650A0008650A0008F8
:100ABC00210C0008650A0008770B0008650A00087D
:100ACC00650A0008BF0B000833681A1D1B683260EA
:100ADC0004F1420684F842300123A8E0316823680F
:100AEC00081D30601E0601D50D6803E05D06FBD5C0
:100AFC00B1F90050002D616878DA2D20002984F8B6
:100B0C004300A1602DDA0A235D486D421646B5FB01
:100B1C00F3F103FB1157C75D06F8017D2F46BB426D
:100B2C000D46F4D9082B0BD12368DF0708D52369B0
:100B3C0061689942DEBF302306F8013C06F1FF36AE
:100B4C00921B22614B4621464046CDF800A003AAD9
:100B5C00FFF7FCFE01306FD14FF0FF3004B0BDE861
:100B6C00F08723F004032360CDE72168336808067F
:100B7C0053F8045B02D4490648BFADB26F2F336003
:100B8C0014BF0A2308233E48002184F843106668EA
:100B9C00002EA660BADB216821F004012160002D33
:100BAC00B4D1002EB2D11646BCE7236843F0200323
:100BBC0023607827334884F84570236831681F0612
:100BCC0051F8045B02D45F0648BFADB23160D9075F
:100BDC0044BF43F0200323601DB11023D4E7284801
:100BEC00E9E7236823F020032360F6E70A2324486F
:100BFC00CDE733682568181D616930602E061B68C7
:100C0C0001D5196002E06806FBD519800023164651
:100C1C00236197E7336800211A1D32601E686268F1
:100C2C00304600F031F808B1801B606063682361C6
:100C3C00002384F8433085E7324649464046236911
:100C4C00D047013088D023689B0714D4E068039BFD
:100C5C009842B8BF184681E70123324649464046C0
:100C6C00D04701303FF478AF0135E36803995B1A44
:100C7C00AB42F1DCEAE7002504F11906F5E700BF09
:100C8C00C6120008D7120008034610B5C9B20244B8
:100C9C009342184601D1002003E0047801338C42C2
:100CAC00F6D110BD0A44914200F1FF3300D17047D8
:100CBC0010B511F8014B914203F8014FF9D110BD59
:100CCC0070B50F4E0C463168054611B900F09EF810
:100CDC0030602146284600F099F8431C03D14FF0B0
:100CEC00FF34204670BDC41C24F00304A042F8D08D
:100CFC00211A284600F08AF80130F2D1EFE700BF44
:100D0C00B80100202DE9F041CD1C25F00305083574
:100D1C000C2D38BF0C25002D064601DBA94204D949
:100D2C000C2333600020BDE8F081314F00F062F8F5
:100D3C003B681C4644BB29463046FFF7C1FF431CA9
:100D4C00044650D13C682146002941D1002C44D0A6
:100D5C002368304604EB030800F058F880453CD17A
:100D6C00216830466D1A2946FFF7AAFF013034D0AE
:100D7C0023682B4423603B68002B36D05A68A24270
:100D8C0029D100225A600EE02268521B1DD40B2A76
:100D9C0016D96119A342256018BF5960636808BF52
:100DAC00396062514B60304600F02AF804F10B00B8
:100DBC00231D20F00700C21AB5D01B1AA350B2E7AE
:100DCC00A3426268DED13A60EDE723466468B1E77E
:100DDC000C464968B8E71346CEE70C23304633601F
:100DEC0000F00EF89EE70560DDE75B60FFDE00BFFC
:100DFC00BC0100200148FFF74FBC00BFB001002030
:100E0C000148FFF74ABC00BFB001002038B50023F1
:100E1C00054D044608462B6000F0A0F8431C02D197
:100E2C002B6803B1236038BDB4010020884210B593
:100E3C0001EB020402D98442234607D8431EA14287
:100E4C0008D011F8012B03F8012FF8E701460244F2
:100E5C008A4200D110BD13F8014D02F8014DF7E79D
:100E6C002DE9F041804615460C4621B91146BDE8E6
:100E7C00F041FFF747BF2AB900F020F800242046C4
:100E8C00BDE8F08100F062F88542064602D8B5EB69
:100E9C00500FF4D829464046FFF734FF0746002888
:100EAC00ECD0B5422A46214628BF3246FFF7FAFE5F
:100EBC002146404600F002F83C46E0E738B50546CE
:100ECC00002940D051F8043C0C1F002BB8BFE4188B
:100EDC00FFF790FF1C4A136833B96360146028460F
:100EEC00BDE83840FFF78CBFA34208D92068211811
:100EFC008B4201BF19685B6809182160EDE71A463F
:100F0C005B680BB1A342FAD911685018A0420BD1FF
:100F1C0020680144501883421160E0D118685B6866
:100F2C00084410605360DAE702D90C232B60D6E733
:100F3C00206821188B4201BF19685B680918216071
:100F4C0063605460CBE738BDBC01002051F8043C11
:100F5C00181F002BBCBF0B58C0187047044A05491A
:100F6C001368002B08BF0B461844106018467047D6
:100F7C00C0010020C80100202DE9F047089D0C4657
:100F8C00002B4ED196468E458446B2FA82F262D937
:100F9C004AB1C2F12003914020FA03F30EFA02FE8B
:100FAC00194300FA02FC4FEA1E47B1FBF7F407FBAA
:100FBC0014111FFA8EF64FEA1C4343EA014304FB5B
:100FCC0006F199420AD91EEB030304F1FF3080F0BD
:100FDC001181994240F20E81023C7344591AB1FBC3
:100FEC00F7F007FB101100FB06F61FFA8CF343EA2F
:100FFC0001439E420AD91EEB030300F1FF3180F03E
:10100C00FB809E4240F2F8807344023800219B1B07
:10101C0040EA04401DB1D3400022C5E90032BDE8CE
:10102C00F0878B4205D90DB1C5E9000100210846B6
:10103C00F5E7B3FA83F1002946D1A34202D39042DB
:10104C00C0F0F380861A64EB03030120002DE6D078
:10105C00C5E90063E3E7002A40F09080A1EB0E04A1
:10106C0001214FEA1E471FFA8EF6B4FBF7F007FB7F
:10107C0010444FEA1C4343EA044306FB00F49C4231
:10108C0008D91EEB030300F1FF3802D29C4200F298
:10109C00C98040461C1B1FFA8CF3B4FBF7FC07FB02
:1010AC001C4406FB0CF643EA04439E4208D91EEB93
:1010BC0003030CF1FF3402D29E4200F2AF80A4462F
:1010CC009B1B4CEA0040A5E7C1F120068B4022FA9D
:1010DC0006FC4CEA030C24FA06F74FEA1C49B7FB52
:1010EC00F9F81FFA8CFE09FB187720FA06F38C40EE
:1010FC0000FA01FA08FB0EF01C43230C43EA0743E9
:10110C00984202FA01F20AD91CEB030308F1FF37EB
:10111C0080F0828098427FD9A8F1020863441F1A9C
:10112C00B7FBF9F309FB137703FB0EFEA4B244EAF9
:10113C000744A64508D91CEB040403F1FF3067D221
:10114C00A64565D9023B644443EA0840A0FB0283F0
:10115C00A4EB0E049C42C6461F4651D34ED0002D24
:10116C0067D0BAEB0E0364EB070424FA01F2CB4010
:10117C00B4401C430021C5E9004250E70EFA02FEC0
:10118C00C2F12003D9404FEA1E4720FA03F300FABC
:10119C0002FCB1FBF7F007FB101194401C431FFA43
:1011AC008EF6230C43EA014300FB06F1994208D961
:1011BC001EEB030300F1FF382CD299422AD90238D6
:1011CC0073445B1AB3FBF7F107FB1133A4B244EA87
:1011DC00034401FB06F3A34208D91EEB040401F1FE
:1011EC00FF3813D2A34211D902397444E41A41EAEC
:1011FC0000413AE70446F1E6084607E7C245AED29D
:10120C00B8EB020E63EB0C070138A8E74146EDE79B
:10121C00034699E74046D4E7B84680E77344ACF1FF
:10122C00020C4DE70238734434E706462346084661
:10123C000CE72946F3E600BFF8B500BFF8BC08BCC4
:10124C009E467047F8B500BFF8BC08BC9E46704778
:10125C00256C6420256C6420256C64200A0D00002C
:10126C007468657265206973206E6F0A0D0000004A
:10127C00656D6F74696F6E206F6E6C790A0D00006E
:10128C006675636B696E672070656163650A0D0036
:10129C00000000000000000001020304060708091A
:1012AC00030406080C10182030232D302B20006866
:1012BC006C4C006566674546470030313233343537
:1012CC0036373839414243444546003031323334A5
:0C12DC003536373839616263646566009E
:0812E8009CFCFF7F01000000E7
:0412F000D901000818
:0412F400B10100083C
:1012F8000100000068FF1F000C0000200000000033
:1013080078000020E00000204801002000000000D4
:1013180000000000000000000000000000000000C5
:1013280000000000000000000000000000000000B5
:1013380000000000000000000000000000000000A5
:0813480000000000000000009D
:04000005080005D119
:00000001FF
