:020000040800F2
:100000000040012011110008290300082B030008FB
:100010002D0300082F030008310300080000000032
:100020000000000000000000000000003303000892
:1000300035030008000000003703000839030008FA
:1000400059110008591100085911000859110008E8
:1000500059110008591100085911000859110008D8
:1000600059110008591100085911000859110008C8
:1000700059110008591100085911000859110008B8
:1000800059110008591100085911000859110008A8
:100090005911000859110008591100085911000898
:1000A0005911000859110008591100085911000888
:1000B0005911000859110008591100085911000878
:1000C0005911000859110008591100085911000868
:1000D0005911000859110008591100085911000858
:1000E0005911000859110008591100085911000848
:1000F00059110008000000005911000859110008AA
:100100005911000859110008591100085911000827
:100110005911000859110008591100080000000089
:10012000591100080000000000000000000000005D
:0C01300000000000000000005FF808F173
:10013C0053B94AB9002908BF00281CBF4FF0FF3142
:10014C004FF0FF3000F00CB8ADF1080C6DE904CEA7
:10015C0001F02AF8DDF804E0DDE9022304B0704771
:10016C00704700BF10B5054C237833B9044B13B15D
:10017C000448AFF300800123237010BD0C00002055
:10018C00000000005414000808B5034B1BB10349D0
:10019C000348AFF3008008BD0000000010000020F1
:1001AC005414000830B58BB00024059406940794C1
:1001BC0008940994204BDA6942F00402DA61DA6996
:1001CC0002F004020192019ADA6942F02002DA612B
:1001DC00DA6902F020020292029ADA6942F0010214
:1001EC00DA61DA6902F001020392039ADA6942F0E9
:1001FC000202DA61DB6903F002030493049B0F4DE6
:10020C0022462021284600F00FFF4FF4005305939F
:10021C004FF488130693079405A9094800F028FEAB
:10022C0020230593012306930794089405A92846D7
:10023C0000F01EFE0BB030BD003802400000024042
:10024C000008024072B6FEE708B50A480A4B036084
:10025C004FF4E133436000238360C36003610C22DD
:10026C0042618361C36100F02FF900B908BDFFF74B
:10027C00E9FF00BF280000200044004000B593B007
:10028C003422002105A800F062FF002300930193A3
:10029C0002930393049316490A6822F4C05242F461
:1002AC0000620A6002220592012108911021099135
:1002BC000E920F934FF4002310934FF400031193FD
:1002CC0005A800F0D7F978B90F2300930323019305
:1002DC0000230293039304930121684600F0B4FCBD
:1002EC0020B913B05DF804FBFFF7ACFFFFF7AAFFD2
:1002FC000070004008B500F03FF9FFF7BFFFFFF7B3
:10030C0051FFFFF7A1FF2021034800F093FE4FF4AB
:10031C007A7000F053F9F6E700000240FEE7FEE7C2
:10032C00FEE7FEE7FEE770477047704708B500F040
:10033C0033F908BD00B585B0104B5A6A42F0004243
:10034C005A625A6A02F000420192019A1A6A42F009
:10035C0001021A621A6A02F001020292029A5A6AA5
:10036C0042F080525A625B6A03F080530393039B02
:10037C00072000F069FE05B05DF804FB0038024070
:10038C0000B589B000230393049305930693079358
:10039C000268144B9A4202D009B05DF804FB03F5D5
:1003AC00FA335A6A42F400325A625A6A02F4003240
:1003BC000192019ADA6942F00102DA61DB6903F019
:1003CC0001030293029B0C23039302230493002347
:1003DC000593032306930723079303A9024800F010
:1003EC0047FDD9E7004400400000024038B5044600
:1003FC000268136923F44053C1680B43136183688B
:10040C000269134342691343C2691A430168CB68FA
:10041C0023F4164323F00C031343CB600268536997
:10042C0023F4407381690B4353610268244B9A4255
:10043C0023D000F0FDFCE369B3F5004F20D000EBB6
:10044C00800000EB800063689B00B0FBF3F01D4D57
:10045C00A5FB00325109642303FB11031B0132334A
:10046C00A5FB03235B0903F0F00202EB011203F07E
:10047C000F03216813448B6038BD00F0E9FCDAE708
:10048C0000EB800000EB800063685B00B0FBF3F0D6
:10049C000C4DA5FB00325109642303FB1103DB0057
:1004AC003233A5FB03235B095A0002F4F87202EB0A
:1004BC00011203F00703216813448B60DCE700BFD3
:1004CC00003801401F85EB5160B310B5044690F81D
:1004DC00413013B3242384F841302268D36823F4C9
:1004EC000053D3602046FFF781FF2268136923F481
:1004FC00904313612268536923F02A0353612268E5
:10050C00D36843F40053D36000206064202384F844
:10051C00413084F84230606310BD80F84030FFF702
:10052C002FFFD7E701207047104B1B680BB9012038
:10053C00704710B504464FF47A70B0FBF3F30C4AD5
:10054C001068B0FBF3F000F0C5FD68B90F2C01D9B1
:10055C0001200AE0002221464FF0FF3000F086FD1A
:10056C00044B1C60002000E0012010BD00000020A6
:10057C00080000200400002010B5032000F064FDEA
:10058C000020FFF7D1FF10B10124204610BD044616
:10059C00FFF7D0FEF9E70000034A13680349096826
:1005AC000B441360704700BF700000200000002057
:1005BC00014B1868704700BF7000002038B5044626
:1005CC00FFF7F6FF0546B4F1FF3F02D0044B1B6862
:1005DC001C44FFF7EDFF401BA042FAD338BD00BF0F
:1005EC000000002010B483B01F4B9B6813F0F00385
:1005FC0028D11D4A526A12F0805F10D01B4A126833
:10060C0002F4C052B2F5C05F1DD1B0F5404F1AD103
:10061C00174A136843F004031360012313E01249D3
:10062C004A6A42F080524A624A6A02F0805201924F
:10063C00019A0E4A126802F4C0524C6A24F080549B
:10064C004C62DFE700230A490A6822F001021A43D0
:10065C000A600A6802F001029A4203D1002003B03A
:10066C0010BC70470120FAE70038024000700040CF
:10067C00003C0240002800F05E82F0B583B00446D6
:10068C00AA4B9D6805F00C059E6806F4803603683D
:10069C0013F0010F1DD0082D12D00C2D0ED0636855
:1006AC00012B35D0002B49D1A04B1A6822F4803293
:1006BC001A601A6822F480221A602EE0002EEED006
:1006CC009A4B1B6813F4003F03D06368002B00F0B7
:1006DC003482236813F0020F68D0042D55D00C2DF2
:1006EC0051D0E368002B00F0C680914B01221A60B8
:1006FC00FFF75EFF06468D4B1B6813F0020F40F0B0
:10070C00B180FFF755FF801B0228F4D903201DE2AE
:10071C00864A136843F480331360636823B3FFF78E
:10072C0047FF0746814B1B6813F4003FD1D1FFF7FD
:10073C003FFFC01B6428F5D9032007E2052B09D025
:10074C007A4B1A6822F480321A601A6822F48022DA
:10075C001A60E2E7754B1A6842F480221A601A6834
:10076C0042F480321A60D8E7FFF722FF07466F4B3E
:10077C001B6813F4003FACD0FFF71AFFC01B6428B2
:10078C00F5D90320E2E1002EABD1684B1B6813F0C6
:10079C00020F03D0E368012B40F0D181634A536808
:1007AC0023F4F853216943EA01235360236813F0BF
:1007BC00100F3BD0002D40F084805C4B1B6813F471
:1007CC00007F03D0A369002B00F0BB81206A574B3C
:1007DC005B6803F4604398425FD9FFF703FF00287E
:1007EC0040F0B181514A536823F46043216A0B43B2
:1007FC005360536823F07F43E16943EA016353601C
:10080C00236A5B0B5A1C4FF400439340474A92688F
:10081C00C2F3031247498A5CD340474A1360474BE3
:10082C001868FFF781FE002840F09081236813F0D0
:10083C00080F00F09B806369002B00F08580404B13
:10084C0001221A60FFF7B4FE0646384B5B6B13F0BF
:10085C00020F40F08B80FFF7ABFE801B0228F4D90F
:10086C00032073E1314A536823F4F853216943EAB6
:10087C00012353609AE72E4B00221A60FFF798FE73
:10088C0006462A4B1B6813F0020F8FD0FFF790FE21
:10089C00801B0228F5D9032058E1244A536823F41D
:1008AC00604318435060536823F07F43E16943EA87
:1008BC0001635360206AFFF795FE0028A0D0012049
:1008CC0044E1A36903B31F4B01221A60FFF770FECA
:1008DC000646164B1B6813F4007F06D1FFF768FE23
:1008EC00801B0228F5D9032030E1104A536823F409
:1008FC006043216A0B435360536823F07F43E169E3
:10090C0043EA0163536091E70E4B00221A60FFF734
:10091C004FFE0646054B1B6813F4007F86D0FFF78D
:10092C0047FE801B0228F5D903200FE10038024056
:10093C00000047426C14000808000020040000204E
:10094C008006474220004742854B00221A60FFF781
:10095C002FFE0646834B5B6B13F0020F06D0FFF79E
:10096C0027FE801B0228F5D90320EFE0236813F043
:10097C00040F79D07B4B5B6A13F0805F1ED1794BEF
:10098C005A6A42F080525A625B6A03F080530193B8
:10099C00019B0126744B1B6813F4807F10D0A36855
:1009AC00012B21D0002B37D16E4B5A6B22F4807265
:1009BC005A635A6B22F480625A631AE00026E9E704
:1009CC00694A136843F480731360FFF7F1FD07461F
:1009DC00654B1B6813F4807FE1D1FFF7E9FDC01B69
:1009EC006428F5D90320B1E05E4A536B43F480735D
:1009FC005363A36833B3FFF7DBFD0746594B5B6BBF
:100A0C0013F4007F2FD1FFF7D3FDC01B41F28833C5
:100A1C009842F3D9032099E0052B09D0514B5A6B1E
:100A2C0022F480725A635A6B22F480625A63E0E7B4
:100A3C004C4B5A6B42F480625A635A6B42F480728C
:100A4C005A63D6E7FFF7B4FD0746464B5B6B13F4CE
:100A5C00007F08D0FFF7ACFDC01B41F288339842F1
:100A6C00F3D9032072E0C6B9636A002B6DD00C2D4C
:100A7C004CD0022B17D03D4B00221A60FFF798FD8B
:100A8C000446384B1B6813F0007F3DD0FFF790FDF8
:100A9C00001B0228F5D9032058E0324A536A23F090
:100AAC0080535362E0E7314B00221A60FFF780FD60
:100ABC0005462C4B1B6813F0007F06D0FFF778FD22
:100ACC00401B0228F5D9032040E026498B6823F40B
:100ADC007D03A26AE06A0243206B024313438B60DE
:100AEC00224B01221A60FFF763FD04461D4B1B6865
:100AFC0013F0007F06D1FFF75BFD001B0228F5D930
:100B0C00032023E0002021E000201FE0012B1FD058
:100B1C00144B9B6803F48031A26A91421AD103F4FE
:100B2C007012E16A8A4217D103F44003226B93429C
:100B3C0014D100200AE001207047012006E00120BA
:100B4C0004E0012002E0012000E0002003B0F0BD31
:100B5C000120FBE70120F9E70120F7E70120F5E789
:100B6C008006474200380240007000406000474257
:100B7C00314B9A6802F00C03082B59D00C2B0AD07D
:100B8C00042B57D02C4B5868C0F34230431C4FF405
:100B9C0000409840704770B5C2F383432749CB5C43
:100BAC00C2F3815201322449896811F4803F1FD06D
:100BBC00DCB2002558010021031B61EB0506B101D5
:100BCC0041EA93619801C01A61EB0601CB0043EA3C
:100BDC005073C6001946301945EB01014B0243EA2C
:100BEC00D0534402204619460023FFF7A1FA70BDEA
:100BFC00DCB2002558010021031B61EB0506B10195
:100C0C0041EA93619801C01A61EB0601CB0043EAFB
:100C1C005073C6001946301945EB01018B0243EAAB
:100C2C0090538402204619460023FFF781FADEE731
:100C3C00034870470348704700380240841400088A
:100C4C0000127A000024F400002800F0D98070B55E
:100C5C000C4605466E4B1B6803F001038B420DD20C
:100C6C00012928D06A4A136823F001032343136037
:100C7C00136803F00103A34240F0C4802B6813F007
:100C8C00020F06D0634A936823F0F003A9680B4364
:100C9C0093602B6813F0010F72D06B68022B10D08D
:100CAC00032B32D0012B37D05A4A126812F4007F32
:100CBC000DD101209DE0564A136843F004031360E4
:100CCC00D0E7544A126812F4003F00F09D8051495D
:100CDC008A6822F0030213438B60FFF769FC064617
:100CEC006B68022B1FD0032B2CD0012B39D0494B16
:100CFC009B6813F00C0F43D0FFF75AFC801B41F29A
:100D0C0088339842F3D9032073E0424A126812F0F8
:100D1C00007FDCD101206CE03E4A126812F0020F19
:100D2C00D5D1012065E03B4B9B6803F00C03082BED
:100D3C0026D0FFF73DFC831B41F288329342F2D957
:100D4C00032056E0334B9B6803F00C030C2B17D09D
:100D5C00FFF72EFC801B41F288339842F2D9032016
:100D6C0047E02C4B9B6803F00C03042B08D0FFF7D7
:100D7C001FFC801B41F288339842F2D9032038E0E3
:100D8C00234B1B6803F00103A3420CD9012C31D077
:100D9C001F4A136823F0010323431360136803F005
:100DAC000103A34232D12B6813F0040F06D0194A69
:100DBC00936823F4E063E9680B4393602B6813F0AA
:100DCC00080F07D0134A936823F46053296943EA48
:100DDC00C1039360FFF7CCFE0E4B9B68C3F3031368
:100DEC000D4AD35CD8400D4B18600D4B1868FFF7BB
:100DFC009BFB70BD064A136843F004031360C7E7FE
:100E0C00012070470120F4E70120F2E70120F0E710
:100E1C00003C0240003802406C140008080000201E
:100E2C0004000020014B1868704700BF0800002028
:100E3C0008B5FFF7F7FF044B9B68C3F30223034A83
:100E4C00D35CD84008BD00BF003802407C140008B9
:100E5C0008B5FFF7E7FF044B9B68C3F3C223034AB3
:100E6C00D35CD84008BD00BF003802407C14000899
:100E7C00F0B482B000235BE086685F000325BD40C0
:100E8C0026EA0506CD68BD4035438560466826EAEE
:100E9C0004064D68C5F300149C403443446055E08F
:100EAC00DD08083550F8257003F00704A6000F2460
:100EBC00B44027EA04070C69B4403C4340F8254091
:100ECC0058E0062400E00024B4403C430235524E66
:100EDC0046F82540514CA568D44325EA02064F68D4
:100EEC0017F4801F01D042EA05064C4DAE60ED6848
:100EFC0004EA05064F6817F4001F01D042EA050604
:100F0C00464DEE606D6804EA05064F6817F4003F25
:100F1C0001D042EA0506414D6E602D682C404E68AA
:100F2C0016F4803F01D042EA05043C4A14600133B8
:100F3C000A6832FA03F46CD001249C402240F6D0AB
:100F4C004D6805F00305013D012D95D94C6804F061
:100F5C000304032C09D0C5685E000324B44025EAC1
:100F6C0004058C68B4402C43C4604C6804F0030442
:100F7C00022C95D005685E000324B44025EA0405D4
:100F8C004C6804F00304B4402C4304604C6814F423
:100F9C00403FCCD0224C256A45F001052562246ADD
:100FAC0004F001040194019C9D08AE1C1A4C54F8E9
:100FBC00267003F00304A6000F24B44027EA0407AC
:100FCC00184CA0423FF47FAF04F58064A04216D0C9
:100FDC0004F58064A04214D004F58064A04212D0C1
:100FEC0004F58064A04210D004F58064A0420ED0B9
:100FFC0004F58064A0423FF464AF072464E7012445
:10100C0062E7022460E703245EE704245CE705241E
:10101C005AE702B0F0BC70470000014000040140E8
:10102C0000380240000002400AB181617047090497
:10103C0081617047436901EA030221EA030141EA35
:10104C000241816170470000074AD36823F4E063D2
:10105C001B041B0C000200F4E060034343F0BF636D
:10106C0043F40033D360704700ED00E030B4174B0D
:10107C00DB68C3F30223C3F10704042C28BF042448
:10108C001D1D062D18D9033B4FF0FF3505FA04F44E
:10109C0021EA0401994005FA03F322EA03031943F8
:1010AC0000280BDB0901C9B200F1604000F561407A
:1010BC0080F8001330BC70470023E5E700F00F0008
:1010CC000901C9B2024B1954F4E700BF00ED00E06E
:1010DC0014ED00E00138B0F1807F0AD2064B586065
:1010EC00064AF02182F823100020986007221A602B
:1010FC0070470120704700BF10E000E000ED00E0F9
:10110C0070470000FFF7FCFF0B480C490C4A00230A
:10111C0002E0D458C4500433C4188C42F9D3094AA1
:10112C00094C002301E013600432A242FBD300F00F
:10113C0017F8FFF7DFF87047000000200C000020C4
:10114C00A01400080C00002074000020FEE70346E9
:10115C000244934200D1704703F8011BF9E70000E9
:10116C0070B500260C4D0D4C641BA410A64209D181
:10117C0000F06AF900260A4D0A4C641BA410A64222
:10118C0005D170BD55F8043B98470136EEE755F88C
:10119C00043B98470136F2E79814000898140008AD
:1011AC00981400089C1400082DE9F04786468C46DC
:1011BC000846154674461946089E002B40F0C2801E
:1011CC008542B2FA82F245D94AB1C2F1200300FA43
:1011DC0002FC2EFA03F3954043EA0C0C94404FEAC0
:1011EC00154EBCFBFEF8A8B20EFB18CC08FB00F9A0
:1011FC00230C43EA0C43994528D9EB1808F1FF3727
:10120C0004D2994502D9A8F102072B44A3EB090398
:10121C00B3FBFEFC0EFB1C330CFB00F0A4B244EA47
:10122C000344A04214D92C190CF1FF3304D2A04270
:10123C0002D9ACF102032C44241A43EA07401EB134
:10124C000023D44034607360BDE8F0874746DDE787
:10125C006346F1E792BB0121431B4FEA154EB3FBEA
:10126C00FEFCAFB20EFB1C330CFB07F8200C40EA63
:10127C000343984562D9EB180CF1FF3004D2984522
:10128C0002D9ACF102002B44A3EB0803B3FBFEFC28
:10129C000EFB1C330CFB07F7A4B244EA0344A74231
:1012AC004ED92C190CF1FF3304D2A74202D9ACF160
:1012BC0002032C44E41B43EA0040C0E7C2F12003C4
:1012CC00954020FA03F12EFA03F34FEA154EB1FBC9
:1012DC00FEFC90400343AFB20EFB1C100CFB07F856
:1012EC00190C41EA0041884504FA02F422D9691824
:1012FC000CF1FF3004D2884502D9ACF1020029442C
:10130C00A1EB0801B1FBFEFC0EFB1C110CFB07F75B
:10131C009BB243EA01439F420ED9EB180CF1FF310B
:10132C0004D29F4202D9ACF102012B44DB1B41EAEF
:10133C00004192E76046E3E76146F7E76046A3E7C2
:10134C006346B7E7834206D916B9002108467BE706
:10135C00C6E900E0F9E7B3FA83F78FB9834201D30A
:10136C00724508D8BEEB020460EB030301209C46D7
:10137C001EB9002168E73846FAE7C6E9004CF8E7E1
:10138C00C7F1200CBB4022FA0CF41C434FEA144961
:10139C0020FA0CF3B3FBF9F8B8402EFA0CF1014328
:1013AC000EFA07F509FB18301FFA84FE08FB0EFA3B
:1013BC000B0C43EA00439A4502FA07F240D9E318B2
:1013CC0008F1FF3004D29A4502D9A8F10200234457
:1013DC00A3EB0A03B3FBF9F809FB183308FB0EFE69
:1013EC0089B241EA03418E452CD9611808F1FF33CB
:1013FC0004D28E4502D9A8F10203214443EA0040ED
:10140C00A0FB0298A1EB0E014145CE46434602D308
:10141C0006D14D4504D2B9EB020E68EB040301383A
:10142C00002EA6D0B5EB0E0261EB030101FA0CFC09
:10143C0022FA07F34CEA0303F940C6E9003198E7B6
:10144C004046C5E74346D9E7F8B500BFF8BC08BC31
:10145C009E467047F8B500BFF8BC08BC9E46704766
:10146C000000000000000000010203040607080948
:10147C000000000001020304030406080C101820ED
:04148C00300000002C
:0814900024FDFF7F01000000B4
:0414980095010008B2
:04149C0071010008D2
:0C14A000010000001000000068FF1F00A9
:0400000508001111CD
:00000001FF
